S01500006E697869655F70726F6772616D2E737265639B
S11300000C943E000C9453000C9453000C94530035
S11300100C9453000C9453000C9453000C94530010
S11300200C9453000C9453000C9453000C94530000
S11300300C9453000C9453000C9453000C945300F0
S11300400C9453000C9453000C9453000C945300E0
S11300500C9453000C9453000C9453000C945300D0
S11300600C9453000C9453000C9453000C945300C0
S11300700C9453000C9453000C94530011241FBE91
S1130080CFEFD4E0DEBFCDBF11E0A0E0B1E0E8E700
S1130090F4E002C005900D92A030B107D9F70E9498
S11300A018010C943A020C940000B09BFECF81E03E
S11300B086BB88EF92EC909385008093840008952A
S11300C0CF92DF92EF92FF920F931F93CF93DF9320
S11300D0FC012FEF53EC89E0215050408040E1F7C0
S11300E000C0000040E0EE24EA9423E030E00CE39A
S11300F010E00F2EF8E1CF2ED12CF02D0F2EFDECB9
S1130100FF2EF02D413039F018F0423031F006C0A6
S1130110E8B8E2B803C0E5B801C0EBB89FEF51EE10
S113012084E0915050408040E1F700C0000080B16D
S1130130837051F49FEF23EC59E0915020405040DC
S1130140E1F700C000006BC080B18370813039F4E6
S1130150842F90E00196B9010E941202482F80B1C9
S113016083708230A1F4411108C0808190E001962F
S1130170B6010E94120280830AC0EF01C40FD11D90
S1130180888190E00196B8010E94120288838281DE
S11301908F9D912D1124969596959695692F660FAE
S11301A0562F550F550F560F851B50E1859F900D07
S11301B011249BB981818F9D912D1124969596953B
S11301C09695692F660F562F550F550F560F851BA1
S11301D050E1859F900D112495B980818F9D912DBB
S11301E01124969596959695692F660F562F550F5F
S11301F0550F560F851B50E1859F900D112498B91A
S113020098B1990F990F9F6092B98FEF91EE54E0D6
S1130210815090405040E1F700C0000073CFDF915F
S1130220CF911F910F91FF90EF90DF90CF900895A1
S1130230CF93DF9300D01F92CDB7DEB780EF81B9A3
S11302408FEF87B984B98AB982B985E08093810038
S11302508CE0898382E28A8388E38B8385E68BB989
S11302602A818DEC289F912D11249695969596952B
S1130270492F440F342F330F330F340F231B30E136
S1130280239F900D112495B99981989F812D112454
S1130290869586958695382F330F232F220F220FAC
S11302A0230F921B20E1929F800D112488B988B1FD
S11302B0880F880F8F6082B90F2EFDECDF2EF02D92
S11302C00CE310E00F2EF8E1EF2EF12CF02D80B1AD
S11302D0837009F04BC03FEF83EC99E031508040CC
S11302E09040E1F700C00000CE0101960E9460003A
S11302F09B819D9D812D1124869586958695382F09
S1130300330F232F220F220F230F921B20E1929FE2
S1130310800D11248BB99A819D9D812D1124869580
S113032086958695382F330F232F220F220F230F04
S1130330921B30E1939F800D112485B999819D9D75
S1130340812D1124869586958695382F330F232F7A
S1130350220F220F230F921B20E1929F800D112464
S113036088B988B1880F880F8F6082B98B8190E03B
S11303700196B8010E9412028B838D9D912D112448
S1130380969596959695392F330F232F220F220F8A
S1130390230F821B30E1839F900D11249BB98B8125
S11303A081113DC08A8190E00196B8010E94120239
S11303B08A838D9D912D1124969596959695392F26
S11303C0330F232F220F220F230F821B20E1829F42
S11303D0900D112495B98A81811121C08B818111DD
S11303E01EC0898190E00196B7010E9412028983A0
S11303F08D9D912D1124969596959695392F330FB1
S1130400232F220F220F230F821B30E1839F900D95
S1130410112498B988B1880F880F8F6082B90E941F
S1130420550055CF97FB072E16F4009407D077FD9F
S113043009D00E94260207FC05D03EF490958195D0
S11304409F4F0895709561957F4F0895AA1BBB1B1C
S113045051E107C0AA1FBB1FA617B70710F0A61BC0
S1130460B70B881F991F5A95A9F780959095BC01E1
S10B0470CD010895F894FFCFBB
S9030000FC
