:100000000C943E000C9453000C9453000C94530039
:100010000C9453000C9453000C9453000C94530014
:100020000C9453000C9453000C9453000C94530004
:100030000C9453000C9453000C9453000C945300F4
:100040000C9453000C9453000C9453000C945300E4
:100050000C9453000C9453000C9453000C945300D4
:100060000C9453000C9453000C9453000C945300C4
:100070000C9453000C9453000C94530011241FBE95
:10008000CFEFD4E0DEBFCDBF11E0A0E0B1E0E8E902
:10009000F3E002C005900D92A030B107D9F70E949D
:1000A00061000C94CA010C9400009195819591090E
:1000B0009093850080938400B09BFECF81E086BB47
:1000C0000895CF93DF9300D01F92CDB7DEB711B85C
:1000D0008FEF84B987B98AB982B985E080938100AE
:1000E00087E189838BE38A838B83D12C0DEC0F2EE0
:1000F000FCE36F2E712CF02D0F2EF8E18F2E912C3A
:10010000F02D0F2EF3E0AF2EB12CF02D2FEF89E65E
:1001100098E1215080409040E1F700C000008981C3
:10012000809F912D1124969596959695392F330F92
:10013000232F220F220F230F821B20E1929F800D7D
:1001400011248BB98A81809F912D112496959695C3
:100150009695392F330F232F220F220F230F821B47
:1001600020E1929F800D112485B98B81809F912D74
:100170001124969596959695392F330F232F220F9C
:10018000220F230F821B20E1929F800D112488B93A
:1001900081E0D81689F0D81620F092E0D916B9F08F
:1001A00020C01BB82FEF89E698E121508040904095
:1001B000E1F700C0000015C015B82FEF89E698E1FF
:1001C000215080409040E1F700C000000AC018B8FC
:1001D0002FEF89E698E1215080409040E1F700C080
:1001E000000080B18C3F69F42FEF89E698E121503F
:1001F00080409040E1F700C0000080B18C3FC9F121
:1002000042C080B18E3F81F48D2D90E00196B50102
:100210000E94A201D82E2FEF89E698E1215080405C
:100220009040E1F700C0000080B18D3F09F06ECF33
:10023000D11008C0898190E00196B4010E94A2010A
:1002400089830DC0E1E0F0E0EC0FFD1FED0DF11D25
:10025000808190E00196B3010E94A20180832FEF7C
:1002600089E698E1215080409040E1F700C000000D
:100270004DCF2FEF89E698E1215080409040E1F783
:1002800000C0000043CFE98027E12E1508F454C0D8
:10029000E09E812D1124869586958695282F220F24
:1002A000922F990F990F920F2E2D291B922F20E13B
:1002B000829F900D11249BB9FA808BE38F15B8F1C2
:1002C000F09E812D1124869586958695282F220FE4
:1002D000922F990F990F920F2F2D291B922F20E10A
:1002E000829F900D112495B91B811C33D8F4109F67
:1002F000812D1124869586958695282F220F922F81
:10030000990F990F920F212F291B922F20E1829F85
:10031000900D112498B988E09DE30E9455001F5F5D
:100320001C3329F71B82F3948CE3F812C9CF1A828D
:10033000E39498E1E912ACCF198280B18C3F09F4C3
:1003400098CFA1CF97FB072E16F4009407D077FD26
:1003500009D00E94B60107FC05D03EF49095819526
:100360009F4F0895709561957F4F0895AA1BBB1B01
:1003700051E107C0AA1FBB1FA617B70710F0A61BA5
:10038000B70B881F991F5A95A9F780959095BC01C6
:08039000CD010895F894FFCFA0
:00000001FF
