:100000000C943E000C9453000C9453000C94530039
:100010000C9453000C9453000C9453000C94530014
:100020000C9453000C9453000C9453000C94530004
:100030000C9453000C9453000C9453000C945300F4
:100040000C9453000C9453000C9453000C945300E4
:100050000C9453000C9453000C9453000C945300D4
:100060000C9453000C9453000C9453000C945300C4
:100070000C9453000C9453000C94530011241FBE95
:10008000CFEFD4E0DEBFCDBF11E0A0E0B1E0E6E904
:10009000F3E002C005900D92A030B107D9F70E949D
:1000A000F3000C94C9010C940000B09BFECF81E0DA
:1000B00086BB88EF92EC909385008093840008952E
:1000C000CF92DF92EF92FF920F931F93CF93DF9324
:1000D000FC0140E0EE24EA9423E030E00CE310E081
:1000E0000F2EF8E1CF2ED12CF02D0F2EFDECFF2E90
:1000F000F02D413031F018F0423029F005C0EBB856
:1001000003C0E5B801C0E8B880B1837009F462C0EB
:1001100080B18370813039F4842F90E00196B90169
:100120000E94A101482F80B183708230A1F4411157
:1001300008C0808190E00196B6010E94A1018083F1
:100140000AC0EF01C40FD11D888190E00196B8016B
:100150000E94A101888382818F9D912D1124969503
:1001600096959695692F660F562F550F550F560F7A
:10017000851B50E1859F900D11249BB981818F9D36
:10018000912D1124969596959695692F660F562F69
:10019000550F550F560F851B50E1859F900D11246B
:1001A00095B980818F9D912D112496959695969560
:1001B000692F660F562F550F550F560F851B50E1AF
:1001C000859F900D112498B998B1990F990F9F6050
:1001D00092B98FCFDF91CF911F910F91FF90EF9048
:1001E000DF90CF900895CF93DF9300D01F92CDB7CB
:1001F000DEB711B88FEF87B984B98AB982B985E0C3
:10020000809381008CE0898382E28A8388E38B83F8
:1002100085E68BB92A818DEC289F912D1124969526
:1002200096959695492F440F342F330F330F340F83
:10023000231B30E1239F900D112495B99981989F3C
:10024000812D1124869586958695382F330F232F7F
:10025000220F220F230F921B20E1929F800D112469
:1002600088B988B1880F880F8F6082B90CE310E0DD
:100270000F2EFDECDF2EF02D0F2EF8E1EF2EF12CDE
:10028000F02D80B1837021F4CE0101960E946000B0
:100290008B8190E00196B8010E94A1018B838D9D16
:1002A000912D1124969596959695392F330F232FDE
:1002B000220F220F230F821B30E1839F900D112408
:1002C0009BB98B81811119C08A8190E00196B80198
:1002D0000E94A1018A838D9D912D1124969596955A
:1002E0009695392F330F232F220F220F230F821BB6
:1002F00020E1829F900D112495B98A8181111EC041
:10030000898190E00196B7010E94A10189838D9DAA
:10031000912D1124969596959695392F330F232F6D
:10032000220F220F230F821B30E1839F900D112497
:1003300098B988B1880F880F8F6082B90E945500E4
:10034000A0CF97FB072E16F4009407D077FD09D0B5
:100350000E94B50107FC05D03EF4909581959F4F12
:100360000895709561957F4F0895AA1BBB1B51E1BD
:1003700007C0AA1FBB1FA617B70710F0A61BB70B15
:10038000881F991F5A95A9F780959095BC01CD01BA
:060390000895F894FFCF70
:00000001FF
